:04000000DEEF09F036
:10100000004E6F206F662053544550203A203030F8
:10101000200020573A3030303020533A30303030D2
:101020002000494E56414C4944204F5054494F4EA0
:101030000020574F524B494E47200020503A303045
:0910400030200030303030000097
:10104A0020EE60F011EE00F09F0EDECFE6FFE8061C
:10105A00FCE2A00ED95EE15E04EC09F01A0E3A6ECB
:10106A005E0E396E6E0EE82EFED7392EFCD73A2E5A
:10107A00FAD700D0000E0101A16F000EA06F65D053
:10108A00000E356EA0C12FF0A1C130F0000E326EF5
:10109A00280E316E1BEC0AF0000E2F24366E010E5C
:1010AA003020376E010E4CEC09F081AE0AD04CECC0
:1010BA000AF0010E0101A025A06F000EA121A16F67
:1010CA0044D081B023D035D003EC0AF04CEC0AF0BE
:1010DA0030D03DEC0AF0FAD72EEC0AF0F7D74CECF8
:1010EA000AF0010E356E220E366E100E376E010EA4
:1010FA004CEC09F0330E3A6EBB0E396EE00EE82E58
:10110A00FED7392EFCD73A2EFAD7E0D7A0C139F04C
:10111A00A1C13AF03A50000AD8A4E1D73950010ADD
:10112A00D8B4D2D7030AD8B4D4D7010AD8B4D4D7FA
:10113A00D6D71A0E3A6E5E0E396E6E0EE82EFED7AE
:10114A00392EFCD73A2EFAD700D00101A1BF98D781
:10115A00A15190E1040EA05DD8B08CD791D7574524
:10116A004C434F4D45000000000000000000000005
:10117A000000000000000000000000000000000065
:10118A00000000000000312E4C4F4F4D20534554B3
:10119A0054494E47530000000000000000000000C0
:1011AA000000000000000000000000000000322ED5
:1011BA0044484F54492053455454494E475300001C
:1011CA000000000000000000000000000000000015
:1011DA00000000000000332E524553455400000021
:1011EA0000000000000000000000000000000000F5
:1011FA000000000000000000000000000000000ED7
:10120A00956E000E8C6E070E326E7D0EE82EFED79E
:10121A00322EFCD700F0030EB3EC09F0210E326E29
:10122A00760EE82EFED7322EFCD700D0030EB3EC92
:10123A0009F0210E326E760EE82EFED7322EFCD73A
:10124A0000D0030EB3EC09F0210E326E760EE82EB2
:10125A00FED7322EFCD700D0030EB3EC09F0210ED4
:10126A00326E760EE82EFED7322EFCD700D0020E52
:10127A00B3EC09F0280EB3EC09F0140EB3EC09F044
:10128A00010EB3EC09F00C0EB3EC09F01200386E43
:10129A003804D8A405D035508009B3EC09F01ED023
:1012AA00020E3818D8A41AD03550C009B3EC09F088
:1012BA0015D036C0F6FF37C0F7FF000EF86E0F0ED6
:1012CA00F76403D00800F55005D0F6CFE9FFF7CF51
:1012DA00EAFFEF5088EC09F0364A372A36C0F6FFA3
:1012EA0037C0F7FF000EF86E0F0EF76403D0080040
:1012FA00F55005D0F6CFE9FFF7CFEAFFEF50000926
:10130A00D8B41200D6D7316E8C848CCF2FF00F0E42
:10131A002F163150F00B2F108C6E8C86210E2F6EEB
:10132A00760EE82EFED72F2EFCD700D08C968CCFC7
:10133A002FF00F0E2F1631C030F00F0E3016303846
:10134A00F00B2F108C6E8C86210E2F6E760EE82EE7
:10135A00FED72F2EFCD700D08C961200316E8C94BB
:10136A008CCF2FF00F0E2F163150F00B2F108C6EE2
:10137A008C86210E2F6E760EE82EFED72F2EFCD7E6
:10138A0000D08C968CCF2FF00F0E2F1631C030F074
:10139A000F0E30163038F00B2F108C6E8C86210E03
:1013AA002F6E760EE82EFED72F2EFCD700D08C9605
:1013BA001200680EF66E110EF76E000EF86E00EE51
:1013CA0060F010EEA0F00900F5CFEEFFE550E15015
:1013DA00FAE101EEA2F012EE52F0EE6AE550E150A7
:1013EA00FCE1E250FAE100EE01F02E0EEE6AE806A8
:1013FA00FDE1000EF86E000125EF08F04CEC0AF052
:10140A0012D0000E356E120E366E100E376E010EA9
:10141A004CEC09F0000E356E3B0E366E100E376E30
:10142A00020E4CEC09F082B01200EBD72F503102B9
:10143A00F3CF33F0F4CF34F02F503202F350342686
:10144A0030503102F350342633C02FF034C030F01C
:10145A0012004CEC0AF009D0000E356E310E366ED1
:10146A00100E376E010E4CEC09F082B01200F4D760
:10147A004CEC0AF009D0000E356E010E366E100ED5
:10148A00376E010E4CEC09F082B01200F4D7010E4F
:06149A00B3EC09F01200A2
:020000040020DA
:08000000FFFFFFFFFFFFFFFF00
:020000040030CA
:0E000000FFE2103CFFA585FF0FC00FE00F4090
:00000001FF
